U1132843960001980000906499800200000123123123AMBIENTE DE HOMOLOGACAO - SEM VALOR FISCAL        
A220250411DINHEIRO                 1000000000400000000000000000000000000
A220250414DINHEIRO                 1000000001500000000000000000000000000
A220250415DINHEIRO                 1000000000600000000000000000000000000
A220250512DINHEIRO                 1000000002300000000000000000000000000
A220250514DINHEIRO                 1000000003700000000000000000000000000
A220250515DINHEIRO                 1000000003900000000000000000000000000
A220250520DINHEIRO                 1000000010500000000000000000000000000
A220250529DINHEIRO                 1000000000200000000000000000000000000
P213284396000198000000000000010000000380893212,4 D (CAMPEON STOCKTON) 20 LT                    LT    ATN180000000000000100
P213284396000198000000000000020000000380893222,4 D AMINA 840 20LT                              LT    ATT180000000000000100
P213284396000198000000000000030000000380893222,4 D CROP 806 SL 20 LT                           LT    ATN180000000000000100
P213284396000198000000000000040000000380893222,4 D NORTOX - 5LT                                LT    ATN180000000000000100
P213284396000198000000000000050000000380893212,4 D NORTOX 20LT                                 LT    ATN180000000000000100
P213284396000198000000000000060000000380893222,4-D TECNOMYL -20LT                              LT    ATN180000000000000100
P21328439600019800000000000007000000038089299ABACUS HC 01LT                                    LT    ATN180000000000000100
P21328439600019800000000000008000000038089299ABACUS HC 05LT                                    LT    ATN180000000000000100
P21328439600019800000000000009000000038089993ABAMECTIN 18 EC NORTOX 01LT                       LT    ATN180000000000000100
P21328439600019800000000000010000000084833021EMERSON TESTE                                     LT    ATT190000000000000100
P21328439600019800000000000011000000038089993ABAMECTIN 72 EC NORTOX 01LT TESTE LUANA           LT    ATN180000000000000100
P21328439600019800000000000012000000038089993ABAMECTIN 72 EC NORTOX 05LT                       LT    ATT190000000000000100
P21328439600019800000000000013000000038089993ABAMEX 01 LT                                      LT    ATN180000000000000100
P21328439600019800000000000014000000038089199ABAMEX 05LT TEST IMPLANTA EMERSON                 LT    ATT190000000000000300
P21328439600019800000000000015000000038089199ACEFATO NORTOX 5KG                                KG    ATN180000000000000100
P21328439600019800000000000016000000038089199ACETAMIPRID NORTOX  PC 5KG                        KG    ATN180000000000000100
P21328439600019800000000000017000000038089199ACETAMIPRID PC 1KG                                KG    ATN180000000000000100
P21328439600019800000000000018000000031029000ACQUAMAX POWER- 01LT                              LT    ATN180000000000000100
P21328439600019800000000000019000000038089999ACTIOIL- 01LT                                     LT    ATN180000000000000100
P21328439600019800000000000020000000034029029ADESIL 01LT                                       LT    ATN180000000000001000
P21328439600019800000000000021000000034029029ADESIL 05LT                                       LT    ATN180000000000000100
P21328439600019800000000000022000000035069120ADESIVO COLOR SEED VERDE 20 LT                    LT    ATN180000000000000100
P21328439600019800000000000023000000031028000ADJUVANTE ULTRA FIX 01LT                          LT    ATN180000000000000100
P21328439600019800000000000024000000031028000ADJUVANTE ULTRA FIX 05LT                          LT    ATN180000000000000100
P21328439600019800000000000025000000031028000ADJUVANTE ULTRA FIX 200LT                         LT    ATN180000000000000100
P21328439600019800000000000026000000038089119ADJUVANTE VERSAL 05 LT                            LT    ATN180000000000000100
P21328439600019800000000000027000000031052000ADUBO 00.30.20 BB 1000KG                          T     ATN180000000000000100
P21328439600019800000000000028000000031052000ADUBO 00.46.00 C/SUPER FOSFATO TRIPLO             SC    ATN180000000000000100
P21328439600019800000000000029000000031052000ADUBO 00.46.00 C/SUPER TRIPLO BB 1000KG           T     ATN180000000000000100
P21328439600019800000000000030000000031052000ADUBO 02.18.18 TESTE VINICIUS                     SC    ATN180000000000000100
P21328439600019800000000000031000000031052000ADUBO 02.18.18 BIG BAG 1000KG                     T     ATN180000000000000100
P21328439600019800000000000032000000031052000ADUBO 02.20.15                                    SC    ATN180000000000000100
P21328439600019800000000000033000000031052000ADUBO 02.20.18 BB 1000KG                          T     ATN180000000000000100
P21328439600019800000000000034000000031052000ADUBO 02.20.18 SC 50 KG                           SC    ATN180000000000000100
P21328439600019800000000000035000000031052000ADUBO 02.20.18 YARA EVOLUTION BB 1000KG           T     ATN180000000000000100
P21328439600019800000000000036000000031052000ADUBO 02.20.20 - SC 50KG                          SC    ATN180000000000000100
P21328439600019800000000000037000000031052000ADUBO 02.20.20 BB 1000KG                          T     ATN180000000000000100
P21328439600019800000000000038000000031052000ADUBO 02.20.20 CIBRA BB 1000KG                    T     ATN180000000000000100
P21328439600019800000000000039000000031052000ADUBO 02.23.23                                    SC    ATN180000000000000100
P21328439600019800000000000040000000031052000ADUBO 02.23.23 BB 1000KG                          T     ATN180000000000000100
P21328439600019800000000000041000000031052000ADUBO 02.24.12                                    SC    ATN180000000000000100
P21328439600019800000000000042000000031052000ADUBO 03.21.21 NPK + MICRO - BB 1000KG            T     ATN180000000000000100
P21328439600019800000000000043000000031052000ADUBO 03.21.21 NPK + MICRO - SC 50KG              SC    ATN180000000000000100
P21328439600019800000000000044000000031052000ADUBO 04.20.20                                    SC    ATN180000000000000100
P21328439600019800000000000045000000031052000ADUBO 04.20.20 BB 1000KG                          T     ATN180000000000000100
P21328439600019800000000000046000000031052000ADUBO 04.24.12                                    SC    ATN180000000000000100
P21328439600019800000000000047000000031052000ADUBO 04.30.10 BB 1000KG                          T     ATN180000000000000100
P21328439600019800000000000048000000031052000ADUBO 05.20.10                                    SC    ATN180000000000000100
P21328439600019800000000000049000000031052000ADUBO 05.20.10 - SC 50KG                          SC    ATN180000000000000100
P21328439600019800000000000050000000031052000ADUBO 05.20.10 BB 1000KG                          T     ATN180000000000000100
P21328439600019800000000000051000000031052000ADUBO 05.20.15                                    SC    ATN180000000000000100
P21328439600019800000000000052000000031052000ADUBO 05.25.12                                    SC    ATN180000000000000100
P21328439600019800000000000053000000031052000ADUBO 05.25.15                                    SC    ATN180000000000000100
P21328439600019800000000000054000000031052000ADUBO 05.26.10 + 9S - SC 50KG                     SC    ATN180000000000000100
P21328439600019800000000000055000000031052000ADUBO 05.29.07 NPK YARA - SC 50KG                 SC    ATN180000000000000100
P21328439600019800000000000056000000031052000ADUBO 05.29.07 NPK YARA BB 1000 KG                T     ATN180000000000000100
P21328439600019800000000000057000000031052000ADUBO 06.16.16                                    SC    ATN180000000000000100
P21328439600019800000000000058000000031052000ADUBO 06.16.16 BIG BAG 1000 KG                    T     ATN180000000000000100
P21328439600019800000000000059000000031052000ADUBO 06.24.12                                    SC    ATN180000000000000100
P21328439600019800000000000060000000031052000ADUBO 06.24.12 BB 1000KG                          T     ATN180000000000000100
P21328439600019800000000000061000000031052000ADUBO 06.32.12 SUPER S - BB 1000KG                T     ATN180000000000000100
P21328439600019800000000000062000000031052000ADUBO 08.20.15 - BIG BAG                          T     ATN180000000000000100
P21328439600019800000000000063000000031052000ADUBO 08.20.15 - SC 50KG                          SC    ATN180000000000000100
P21328439600019800000000000064000000031052000ADUBO 08.20.20 - SC 50KG                          SC    ATN180000000000000100
P21328439600019800000000000065000000031052000ADUBO 08.20.20 BB 1000KG                          T     ATN180000000000000100
P21328439600019800000000000066000000031052000ADUBO 08.20.20 YARA TURBO PROCOTE                 SC    ATN180000000000000100
P21328439600019800000000000067000000031052000ADUBO 09.16.11 50KG                               SC    ATN180000000000000100
P21328439600019800000000000068000000031052000ADUBO 09.20.15 - SC 50KG                          SC    ATN180000000000000100
P21328439600019800000000000069000000031052000ADUBO 09.21.13 - SC 50KG                          SC    ATN180000000000000100
P21328439600019800000000000070000000031052000ADUBO 09.21.13 ACTIVEALPHA SC 25 KG               SC    ATN180000000000000100
P21328439600019800000000000071000000031052000ADUBO 09.24.12 + 11S - SC 50KG                    SC    ATN180000000000000100
P21328439600019800000000000072000000031052000ADUBO 09.25.15 - SC 50KG                          SC    ATN180000000000000100
P21328439600019800000000000073000000031052000ADUBO 09.25.15 BB 1000KG                          T     ATN180000000000000100
P21328439600019800000000000074000000031052000ADUBO 09.33.12 - SC 50KG                          SC    ATN180000000000000100
P21328439600019800000000000075000000031052000ADUBO 10.16.10 YARA BB 1000KG                     T     ATN180000000000000100
P21328439600019800000000000076000000031052000ADUBO 10.24.18                                    SC    ATN180000000000000100
P21328439600019800000000000077000000031052000ADUBO 10.25.15                                    SC    ATN180000000000000100
P21328439600019800000000000078000000031052000ADUBO 11.44-00 BB 1000KG                          T     ATN180000000000000100
P21328439600019800000000000079000000031052000ADUBO 12.32.18                                    SC    ATN180000000000000100
P21328439600019800000000000080000000031052000ADUBO 15.15.15 NPK - BB 1000KG                    T     ATN180000000000000100
P21328439600019800000000000081000000031042010ADUBO ASPIRE 00.00.58+0,5B BB 1000 KG             T     ATN180000000000000100
P21328439600019800000000000082000000031052000ADUBO BIOZAR  04.14.08 SC 50KG                    SC    ATN180000000000000100
P21328439600019800000000000083000000031052000ADUBO BIOZAR MULTI 260 05.15.15 SC 50KG           SC    ATN180000000000000100
P21328439600019800000000000084000000031052000ADUBO BRFERTIL NPK 02.20.18 1000KG                T     ATN180000000000000100
P21328439600019800000000000085000000031052000ADUBO BRFERTIL NPK 10.15-15 1000KG                T     ATN180000000000000100
P21328439600019800000000000086000000031052000ADUBO CHS 02.28.20 BB 1000KG                      T     ATN180000000000000100
P21328439600019800000000000087000000031052000ADUBO CIBRA 02.18.18                              SC    ATN180000000000000100
P21328439600019800000000000088000000031052000ADUBO CIBRA 02.20.15                              SC    ATN180000000000000100
P21328439600019800000000000089000000031052000ADUBO CIBRA 02.20.18                              SC    ATN180000000000000100
P21328439600019800000000000090000000031052000ADUBO CIBRA 02.20.18 BB 1000KG                    T     ATN180000000000000100
P21328439600019800000000000091000000031052000ADUBO CIBRA 02.20.20                              SC    ATN180000000000000100
P21328439600019800000000000092000000031052000ADUBO CIBRA 02.23.23                              SC    ATN180000000000000100
P21328439600019800000000000093000000031052000ADUBO CIBRA 04.14.08 50KG                         SC    ATN180000000000000100
P21328439600019800000000000094000000031052000ADUBO CIBRA 04.20.15                              SC    ATN180000000000000100
P21328439600019800000000000095000000031052000ADUBO CIBRA 04.20.15 BB 1000KG                    T     ATN180000000000000100
P21328439600019800000000000096000000031052000ADUBO CIBRA 04.30.10 BB 1000KG                    T     ATN180000000000000100
P21328439600019800000000000097000000031052000ADUBO CIBRA 05.20.15                              SC    ATN180000000000000100
P21328439600019800000000000098000000031052000ADUBO CIBRA 05.25.15                              SC    ATN180000000000000100
P21328439600019800000000000099000000031052000ADUBO CIBRA 05.25.15 BB 1000KG                    T     ATN180000000000000100
P21328439600019800000000000100000000031052000ADUBO CIBRA 06.16.16 50KG                         SC    ATN180000000000000100
P21328439600019800000000000101000000031052000ADUBO CIBRA 06.16.16 BB 1000KG                    T     ATN180000000000000100
P21328439600019800000000000102000000031042010ADUBO CIBRA 06.24.16 + 9S 50KG                    SC    ATN180000000000000100
P21328439600019800000000000103000000031052000ADUBO CIBRA 06.24.16 + 9S BB 1000KG               T     ATN180000000000000100
P21328439600019800000000000104000000031052000ADUBO CIBRA 08.16.16                              SC    ATN180000000000000100
P21328439600019800000000000105000000031052000ADUBO CIBRA 08.20.15                              SC    ATN180000000000000100
P21328439600019800000000000106000000031052000ADUBO CIBRA 08.20.15 BB 1000KG                    T     ATN180000000000000100
P21328439600019800000000000107000000031052000ADUBO CIBRA 08.20.20                              SC    ATN180000000000000100
P21328439600019800000000000108000000031052000ADUBO CIBRA 09.25.15                              SC    ATN180000000000000100
P21328439600019800000000000109000000031052000ADUBO CIBRA BASEFORT 12 10.40.00 - 50 KG          SC    ATN180000000000000100
P21328439600019800000000000110000000031052000ADUBO CIBRA BASEFORT 12 10.40.00 BB 1000KG        T     ATN180000000000000100
P21328439600019800000000000111000000031052000ADUBO CIBRA BASEFORT 12.46.00 BB 1000KG           T     ATN180000000000000100
P21328439600019800000000000112000000031052000ADUBO FERTIPAR 02.18.18 MICRO TOTAL SC 50KG       SC    ATN180000000000000100
P21328439600019800000000000113000000031052000ADUBO FERTIPAR 02.20.18 BB 1000KG                 T     ATN180000000000000100
P21328439600019800000000000114000000031052000ADUBO FERTIPAR 08.15.15 SC 50KG                   SC    ATN180000000000000100
P21328439600019800000000000115000000031052000ADUBO FERTIPAR 08.20.15 BB 1000KG                 T     ATN180000000000000100
P21328439600019800000000000116000000031052000ADUBO FERTIPAR 08.20.20 BB 1000KG                 T     ATN180000000000000100
P21328439600019800000000000117000000031052000ADUBO MAP 11.52.00 - SC 50KG                      SC    ATN180000000000000100
P21328439600019800000000000118000000031052000ADUBO MAP 11.52.00 BB 1000KG                      T     ATN180000000000000100
P21328439600019800000000000119000000031052000ADUBO MAP GRANULADO 12.52.00 BB 1000KG            T     ATN180000000000000100
P21328439600019800000000000120000000031052000ADUBO MAP GRANULADO 12.52.00 SC 50KG              SC    ATN180000000000000100
P21328439600019800000000000121000000031052000ADUBO MINERAL COMPLEXO YARAMILA SELETO 05.26.05   SC    ATN180000000000000100
P21328439600019800000000000122000000031052000ADUBO MINERAL COMPLEXO YARAMILA SELETO 05.26.05 B.T     ATN180000000000000100
P21328439600019800000000000123000000031052000ADUBO MINORGAN 02.10.10                           SC    ATN180000000000000100
P21328439600019800000000000124000000031052000ADUBO MINORGAN 02.10.10 - BB 1000KG               SC    ATN180000000000000100
P21328439600019800000000000125000000031052000ADUBO MINORGAN 05.10.10                           SC    ATN180000000000000100
P21328439600019800000000000126000000031052000ADUBO MINORGAN ORGANOFOS MASTER 02.10.02 50 KG    SC    ATN180000000000000100
P21328439600019800000000000127000000031052000ADUBO MINORGAN PLUS 02.07.07                      SC    ATN180000000000000100
P21328439600019800000000000128000000031052000ADUBO MINORGAN PLUS 02.07.07 BIG BAG              T     ATN180000000000000100
P21328439600019800000000000129000000031052000ADUBO MINORGAN PLUS 05.08.08                      SC    ATN180000000000000100
P21328439600019800000000000130000000031052000ADUBO MINORGAN PLUS 05.08.08  BB 1000 KG          T     ATN180000000000000100
P21328439600019800000000000131000000031052000ADUBO MOSAIC 02.18.18                             SC    ATN180000000000000100
P21328439600019800000000000132000000031052000ADUBO MOSAIC 02.18.18 BB 1000KG                   T     ATN180000000000000100
P21328439600019800000000000133000000031052000ADUBO MOSAIC 02.20.10                             SC    ATN180000000000000100
P21328439600019800000000000134000000031052000ADUBO MOSAIC 02.20.15                             SC    ATN180000000000000100
P21328439600019800000000000135000000031052000ADUBO MOSAIC 02.20.18                             SC    ATN180000000000000100
P21328439600019800000000000136000000031052000ADUBO MOSAIC 02.20.20                             SC    ATN180000000000000100
P21328439600019800000000000137000000031052000ADUBO MOSAIC 02.23.23                             SC    ATN180000000000000100
P21328439600019800000000000138000000031052000ADUBO MOSAIC 02.24.12 BB 1000KG                   T     ATN180000000000000100
P21328439600019800000000000139000000031052000ADUBO MOSAIC 04.20.15                             SC    ATN180000000000000100
P21328439600019800000000000140000000031052000ADUBO MOSAIC 04.20.15 BB 1000KG                   T     ATN180000000000000100
P21328439600019800000000000141000000031052000ADUBO MOSAIC 04.24.12                             SC    ATN180000000000000100
P21328439600019800000000000142000000031052000ADUBO MOSAIC 04.30.10                             SC    ATN180000000000000100
P21328439600019800000000000143000000031052000ADUBO MOSAIC 05.20.12 MICROESSENTIALS 50KG        SC    ATN180000000000000100
P21328439600019800000000000144000000031052000ADUBO MOSAIC 05.20.12 MICROESSENTIALS BB 1000KG   T     ATN180000000000000100
P21328439600019800000000000145000000031052000ADUBO MOSAIC 05.25.15                             SC    ATN180000000000000100
P21328439600019800000000000146000000031052000ADUBO MOSAIC 05.25.15 BB 1000KG                   T     ATN180000000000000100
P21328439600019800000000000147000000031052000ADUBO MOSAIC 05.33.06 MICROESSENTIALS BB 1000KG   T     ATN180000000000000100
P21328439600019800000000000148000000031052000ADUBO MOSAIC 05.33.06 MICROESSENTIALS SC 50KG     SC    ATN180000000000000100
P21328439600019800000000000149000000031052000ADUBO MOSAIC 06.16.16 SC 50KG                     SC    ATN180000000000000100
P21328439600019800000000000150000000031052000ADUBO MOSAIC 08.20.15 BB 1000KG                   T     ATN180000000000000100
P21328439600019800000000000151000000031052000ADUBO MOSAIC 08.20.15 SC 50KG                     SC    ATN180000000000000100
P21328439600019800000000000152000000031052000ADUBO MOSAIC 10.15.15                             SC    ATN180000000000000100
P21328439600019800000000000153000000031052000ADUBO MOSAIC 10.15.15 BB 1000KG                   T     ATN180000000000000100
P21328439600019800000000000154000000031052000ADUBO MOSAIC 10.25.15                             SC    ATN180000000000000100
P21328439600019800000000000155000000031052000ADUBO MOSAIC 10.25.15 BB 1000KG                   T     ATN180000000000000100
P21328439600019800000000000156000000031052000ADUBO MOSAIC 12.31.17                             SC    ATN180000000000000100
P21328439600019800000000000157000000031052000ADUBO MOSAIC 12.31.17  BB 1000KG                  T     ATN180000000000000100
P21328439600019800000000000158000000031052000ADUBO NPK 01.20.20  + 5S - BB 1000KG              T     ATN180000000000000100
P21328439600019800000000000159000000031052000ADUBO SUPERBAC 02.10.05 BB 1000 KG                T     ATN180000000000000100
P21328439600019800000000000160000000031052000ADUBO SUPERBAC 02.10.05 SC 50KG                   SC    ATN180000000000000100
P21328439600019800000000000161000000031052000ADUBO SUPERBAC 02.10.10 SC 50KG                   SC    ATN180000000000000100
P21328439600019800000000000162000000031052000ADUBO SUPERGAN 01.06.06                           SC    ATN180000000000000100
P21328439600019800000000000163000000031052000ADUBO SUPERGAN 02.07.09                           SC    ATN180000000000000100
P21328439600019800000000000164000000031052000ADUBO SUPERGAN 02.07.09 BB 1000 KG                T     ATN180000000000000100
P21328439600019800000000000165000000031052000ADUBO SUPERGAN 02.10.10- BB 1000 KG               T     ATN180000000000000000
P21328439600019800000000000166000000031052000ADUBO SUPERGAN 02.12.12                           SC    ATN180000000000000100
P21328439600019800000000000167000000031052000ADUBO SUPERGAN 02.12.12 BB 1000 KG                T     ATN180000000000000000
P21328439600019800000000000168000000031052000ADUBO SUPERGAN 05.08.08                           SC    ATN180000000000000100
P21328439600019800000000000169000000031052000ADUBO SUPERGAN 05.08.08- BB  1000 KG              T     ATN180000000000000000
P21328439600019800000000000170000000031052000ADUBO SUPERGAN 05.10.10 - BB 1000KG               T     ATN180000000000000100
P21328439600019800000000000171000000031052000ADUBO SUPERGAN 05.16.10                           SC    ATN180000000000000100
P21328439600019800000000000172000000031052000ADUBO SUPERGAN 05.16.10 BB 1000 KG                T     ATN180000000000000000
P21328439600019800000000000173000000031052000ADUBO SUPERGAN 06.22.01- BB 1000 KG               T     ATN180000000000000100
P21328439600019800000000000174000000031052000ADUBO SUPERGAN 07.07.07 BB 1000 KG                T     ATN180000000000000100
P21328439600019800000000000175000000031052000ADUBO SUPERGAN 07.07.07 SC 50KG                   SC    ATN180000000000000100
P21328439600019800000000000176000000031052000ADUBO SUPERGAN 10.08.08 SC 50KG                   SC    ATN180000000000000100
P21328439600019800000000000177000000031052000ADUBO SUPERGAN 10.10.10 BB 1000 KG                T     ATN180000000000000100
P21328439600019800000000000178000000031052000ADUBO SUPERGAN 10.10.10 SC 50KG                   SC    ATN180000000000000100
P21328439600019800000000000179000000031052000ADUBO SUPERGAN PLUS 02.10.10- 1000KG              T     ATN180000000000000100
P21328439600019800000000000180000000031052000ADUBO SUPERGAN PLUS 02.10.10- 50KG                SC    ATN180000000000000100
P21328439600019800000000000181000000031052000ADUBO SUPERGAN PREMIUM 05.13.13- 1000KG           T     ATN180000000000000100
P21328439600019800000000000182000000031052000ADUBO SUPERGAN PREMIUM 05.13.13- 50KG             SC    ATN180000000000000100
P21328439600019800000000000183000000031052000ADUBO SUPERGAN SC 07.10.10                        SC    ATN180000000000000100
P21328439600019800000000000184000000031052000ADUBO SUPERGAN SOJA PREMIUM 02.12.12- 50KG        UN    ATT180000000000000100
P21328439600019800000000000185000000031052000ADUBO SUPERGAN SOJA PREMIUM 920 (02-15-12) + 4% CAT     ATN180000000000000100
P21328439600019800000000000186000000031052000ADUBO SUPERGAN SOJA TURBO 02.10.10 - BB 1000KG    T     ATN180000000000000100
P21328439600019800000000000187000000031052000ADUBO SUPERGAN SOJA TURBO 02.10.10 SC 50KG        SC    ATN180000000000000100
P21328439600019800000000000188000000031052000ADUBO TOP MIX 04.24.12 BB 1000KG                  T     ATN180000000000000100
P21328439600019800000000000189000000031052000ADUBO TOP MIX EVOLUTION 02.23.23                  SC    ATN180000000000000100
P21328439600019800000000000190000000031052000ADUBO TOPMIX 06.30.06 - BB 1000KG                 T     ATN180000000000000100
P21328439600019800000000000191000000031052000ADUBO TOPMIX EVOLUTION 07.40.00 BB 1000KG         T     ATN180000000000000100
P21328439600019800000000000192000000031052000ADUBO UNIFERTIL 08.20.20 BB 1000KG                T     ATN180000000000000100
P21328439600019800000000000193000000031052000ADUBO YARA 00.17.00 C/SUPER SIMPLES BB 1000KG     T     ATN180000000000000100
P21328439600019800000000000194000000031052000ADUBO YARA 02.18.18 BB 1000KG                     T     ATN180000000000000100
P21328439600019800000000000195000000031052000ADUBO YARA 02.18.18 SC 50KG                       SC    ATN180000000000000100
P21328439600019800000000000196000000031052000ADUBO YARA 02.20.00                               SC    ATN180000000000000100
P21328439600019800000000000197000000031052000ADUBO YARA 02.20.10 BB 1000KG                     T     ATN180000000000000100
P21328439600019800000000000198000000031052000ADUBO YARA 02.20.15                               SC    ATN180000000000000100
P21328439600019800000000000199000000031052000ADUBO YARA 02.20.15 BB 1000KG                     T     ATN180000000000000100
P21328439600019800000000000200000000031052000ADUBO YARA 02.20.18 - SC 50KG                     SC    ATN180000000000000100
P21328439600019800000000000201000000031052000ADUBO YARA 02.20.18 BB 1000KG                     T     ATN180000000000000100
P21328439600019800000000000202000000031052000ADUBO YARA 02.20.20                               SC    ATN180000000000000100
P21328439600019800000000000203000000031052000ADUBO YARA 02.22.22 BB 1000KG                     T     ATN180000000000000100
P21328439600019800000000000204000000031052000ADUBO YARA 02.23.23                               SC    ATN180000000000000100
P21328439600019800000000000205000000031052000ADUBO YARA 02.23.23 BB 1000KG                     SC    ATN180000000000000100
P21328439600019800000000000206000000031052000ADUBO YARA 02.23.23 TOPMIX BB 1000 KG             T     ATN180000000000000100
P21328439600019800000000000207000000031052000ADUBO YARA 02.23.23 TOPMIX SC 50 KG               SC    ATN180000000000000100
P21328439600019800000000000208000000031052000ADUBO YARA 02.23.23 TURBO BB 1000KG               T     ATN180000000000000100
P21328439600019800000000000209000000031052000ADUBO YARA 02.23.23 TURBO SC                      SC    ATN180000000000000100
P21328439600019800000000000210000000031052000ADUBO YARA 02.24.12 EVOLUTION  BB 1000KG          T     ATN180000000000000100
P21328439600019800000000000211000000031052000ADUBO YARA 02.28.20                               SC    ATN180000000000000100
P21328439600019800000000000212000000031052000ADUBO YARA 02.28.20 TOP MIX                       SC    ATN180000000000000100
P21328439600019800000000000213000000031052000ADUBO YARA 02.28.20 TOPMIX EVOLUTION BB 1000KG    T     ATN180000000000000100
P21328439600019800000000000214000000031052000ADUBO YARA 02.28.20 TOPMIX EVOLUTION SC 50 KG     SC    ATN180000000000000100
P21328439600019800000000000215000000031052000ADUBO YARA 02.30.10 BB 1000KG                     T     ATN180000000000000100
P21328439600019800000000000216000000031052000ADUBO YARA 04.14.08 SC 50KG                       SC    ATN180000000000000100
P21328439600019800000000000217000000031052000ADUBO YARA 04.20.20                               SC    ATN180000000000000100
P21328439600019800000000000218000000031052000ADUBO YARA 04.20.20 BB 1000KG                     T     ATN180000000000000100
P21328439600019800000000000219000000031052000ADUBO YARA 04.24.12                               SC    ATN180000000000000100
P21328439600019800000000000220000000031052000ADUBO YARA 04.24.12 BB 1000KG                     T     ATN180000000000000100
P21328439600019800000000000221000000031052000ADUBO YARA 04.30.10                               SC    ATN180000000000000100
P21328439600019800000000000222000000031052000ADUBO YARA 04.30.10  TOP MIX BB 1000KG            T     ATN180000000000000100
P21328439600019800000000000223000000031052000ADUBO YARA 04.30.10 BB 1000KG                     T     ATN180000000000000100
P21328439600019800000000000224000000031052000ADUBO YARA 04.30.10 TOP MIX SC                    SC    ATN180000000000000100
P21328439600019800000000000225000000031052000ADUBO YARA 05.25.15 BB 1000KG                     T     ATN180000000000000100
P21328439600019800000000000226000000031052000ADUBO YARA 05.25.15 SC 50KG                       SC    ATN180000000000000100
P21328439600019800000000000227000000031052000ADUBO YARA 05.25.25 BB 1000KG                     T     ATN180000000000000100
P21328439600019800000000000228000000031052000ADUBO YARA 06.16.16 BB 1000KG                     T     ATN180000000000000100
P21328439600019800000000000229000000031052000ADUBO YARA 06.16.16 SC 50KG                       SC    ATN180000000000000100
P21328439600019800000000000230000000031052000ADUBO YARA 06.27.06                               SC    ATN180000000000000100
P21328439600019800000000000231000000031052000ADUBO YARA 06.30.15 EVOLUTION 50KG                SC    ATN180000000000000100
P21328439600019800000000000232000000031052000ADUBO YARA 06.30.15 EVOLUTION BB 1000KG           T     ATN180000000000000100
P21328439600019800000000000233000000031052000ADUBO YARA 07.28.14 BB 1000KG                     T     ATN180000000000000100
P21328439600019800000000000234000000031051000ADUBO YARA 08.16.16                               SC    ATN180000000000000100
P21328439600019800000000000235000000031052000ADUBO YARA 08.16.16 BB 1000KG                     T     ATN180000000000000100
P21328439600019800000000000236000000031052000ADUBO YARA 08.20.10                               SC    ATN180000000000000100
P21328439600019800000000000237000000031052000ADUBO YARA 08.20.10 BB 1000KG                     T     ATN180000000000000100
P21328439600019800000000000238000000031052000ADUBO YARA 08.20.15 BB 1000KG                     T     ATN180000000000000100
P21328439600019800000000000239000000031052000ADUBO YARA 08.20.15 SC 50KG                       SC    ATN180000000000000100
P21328439600019800000000000240000000031052000ADUBO YARA 08.20.20                               SC    ATN180000000000000100
P21328439600019800000000000241000000031052000ADUBO YARA 08.20.20 BB 1000KG                     T     ATN180000000000000100
P21328439600019800000000000242000000031052000ADUBO YARA 08.30.20                               SC    ATN180000000000000100
P21328439600019800000000000243000000031052000ADUBO YARA 09.25.15 BB 1000KG                     T     ATN180000000000000100
P21328439600019800000000000244000000031052000ADUBO YARA 09.25.15 TOP MIX BB 1000KG             T     ATN180000000000000100
P21328439600019800000000000245000000031052000ADUBO YARA 09.33.12                               SC    ATN180000000000000100
P21328439600019800000000000246000000031052000ADUBO YARA 10.15.15 BB 1000KG                     T     ATN180000000000000100
P21328439600019800000000000247000000031052000ADUBO YARA 10.15.15 SC 50KG                       SC    ATN180000000000000100
P21328439600019800000000000248000000031052000ADUBO YARA 10.16.10 SC 50KG                       SC    ATN180000000000000100
P21328439600019800000000000249000000031052000ADUBO YARA 10.20.10 BB 1000 KG                    T     ATN180000000000000100
P21328439600019800000000000250000000031052000ADUBO YARA 12.24.16                               SC    ATN180000000000000100
P21328439600019800000000000251000000031052000ADUBO YARA 12.24.16 BB 1000 KG                    T     ATN180000000000000100
P21328439600019800000000000252000000031052000ADUBO YARA 12.31.16 50KG                          SC    ATN180000000000000100
P21328439600019800000000000253000000031052000ADUBO YARA 12.31.16 BB 1000KG                     T     ATN180000000000000100
P21328439600019800000000000254000000031052000ADUBO YARA 12.31.17                               SC    ATN180000000000000100
P21328439600019800000000000255000000031052000ADUBO YARA 12.31.17 BB 1000KG                     T     ATN180000000000000100
P21328439600019800000000000256000000031052000ADUBO YARA 12.32.18                               SC    ATN180000000000000100
P21328439600019800000000000257000000031052000ADUBO YARA 12.32.18 BB 1000KG                     T     ATN180000000000000100
P21328439600019800000000000258000000031052000ADUBO YARA TURBO 02.24.12 SC                      SC    ATN180000000000000100
P21328439600019800000000000259000000031052000ADUBO YARA TURBO 09.25.15                         SC    ATN180000000000000100
P21328439600019800000000000260000000031052000ADUBO YARA YARABASA 13.24.12 BB 1000KG            T     ATN180000000000000000
P21328439600019800000000000261000000031052000ADUBO YARABASA 02.18.18 10CA 6S BB 1000KG         T     ATN180000000000000100
P21328439600019800000000000262000000031052000ADUBO YARABASA 02.18.18 10CA 6S SC 50KG           SC    ATN180000000000000100
P21328439600019800000000000263000000031052000ADUBO YARABASA 03.21.21 BB 1000KG                 T     ATN180000000000000100
P21328439600019800000000000264000000031052000ADUBO YARABASA 03.21.21 SC 50KG                   SC    ATN180000000000000100
P21328439600019800000000000265000000031052000ADUBO YARABASA 05.25.12 BB 1000KG                 T     ATN180000000000000100
P21328439600019800000000000266000000031052000ADUBO YARABASA 05.25.12 SC 50KG                   SC    ATN180000000000000100
P21328439600019800000000000267000000031052000ADUBO YARABASA 05.26.05  BB 1000 KG               T     ATN180000000000000100
P21328439600019800000000000268000000031052000ADUBO YARABASA 05.26.05 SC 50KG                   SC    ATN180000000000000100
P21328439600019800000000000269000000031052000ADUBO YARABASA 08.17.11 BB 1000 KG                T     ATN180000000000000100
P21328439600019800000000000270000000031052000ADUBO YARABASA 08.17.11 SC 50KG                   SC    ATN180000000000000100
P21328439600019800000000000271000000031052000ADUBO YARABASA 09.16.11 BB 1000KG                 T     ATN180000000000000100
P21328439600019800000000000272000000031052000ADUBO YARABASA 09.16.11 SC 50KG                   SC    ATN180000000000000100
P21328439600019800000000000273000000031052000ADUBO YARAMILA 08.21.21 BB 1000 KG                T     ATN180000000000000100
P21328439600019800000000000274000000031052000ADUBO YARAMILA 12.24.12                           SC    ATN180000000000000100
P21328439600019800000000000275000000031052000ADUBO YARAMILA 12.24.12 BB 1000KG                 T     ATN180000000000000100
P21328439600019800000000000276000000031052000ADUBO YARAMILA 13.24.12 50 KG                     SC    ATN180000000000000100
P21328439600019800000000000277000000031052000ADUBO YARAMILA 13.24.12 BB 1000KG                 T     ATN180000000000000100
P21328439600019800000000000278000000031052000ADUBO YARAMILA ABSOLUTO 04.28.08                  SC    ATN180000000000000100
P21328439600019800000000000279000000031052000ADUBO YARAMILA ABSOLUTO 04.28.08 BB 1000KG        T     ATN180000000000000100
P21328439600019800000000000280000000031052000ADUBO YARAMILA SOBERANO 06.27.06 BB 1000KG        T     ATN180000000000000100
P21328439600019800000000000281000000031052000ADUBO YARAMILA UNIK 16.16.16 BB 1000KG            T     ATN180000000000000100
P21328439600019800000000000282000000031052000ADUBO YARAMILA UNIK 16.16.16 SC 50KG              SC    ATN180000000000000100
P21328439600019800000000000283000000038089323AFALON SC 01LT                                    LT    ATN180000000000000100
P21328439600019800000000000284000000038089197AGR OLEO 01LT                                     LT    ATN180000000000000100
P21328439600019800000000000285000000038089322AGRITONE 480 SL 05LT                              LT    ATN180000000000000100
P21328439600019800000000000286000000031021090AGRO TOP 05 LT                                    LT    ATN180000000000000100
P21328439600019800000000000287000000085442000AGR'OLEO 05LT                                     LT    ATN180000000000000100
P21328439600019800000000000288000000085442000AGR'OLEO 20LT                                     LT    ATN180000000000000100
P21328439600019800000000000289000000038089999AIR TRUCK  1 LT                                   LT    ATN180000000000000100
P21328439600019800000000000290000000038089999AIR TRUCK  5 LT                                   LT    ATN180000000000000100
P21328439600019800000000000291000000031029000ALGA MOZN 5LT                                     LT    ATN180000000000000100
P21328439600019800000000000292000000038089299ALIETTE WP80 01 KG                                LT    ATN180000000000000100
P21328439600019800000000000293000000032061910ALLDRY - TRATAMENTO DE SEMENTES (GR)              KG    ATN180000000000000100
P21328439600019800000000000294000000032061910ALLDRY POS-SECANTE 10KG                           KG    ATN180000000000000100
P21328439600019800000000000295000000038089329ALLY 40GR                                         KG    ATN180000000000000100
P21328439600019800000000000296000000038089322AMINOL 806 05LT                                   LT    ATN180000000000000100
P21328439600019800000000000297000000038089322AMINOL 806 20LT                                   LT    ATN180000000000000100
P21328439600019800000000000298000000031029000AMINOLOM FOLIAR 24% 1LT                           LT    ATN180000000000000100
P21328439600019800000000000299000000031029000AMINOLOM FOLIAR 24% 5LT                           LT    ATN180000000000000100
P21328439600019800000000000300000000038089299AMISTAR TOP 5LT                                   LT    ATN180000000000000100
P21328439600019800000000000301000000038089329AMPLO BR 01LT                                     LT    ATN180000000000000100
P21328439600019800000000000302000000038089329AMPLO BR 05LT                                     LT    ATN180000000000000100
P21328439600019800000000000303000000031029000AMPLUS- 5LT                                       LT    ATN180000000000000100
P21328439600019800000000000304000000084329000ANEL DE PLASTICO SEMEATO RED.1MM-VERDE            UN    ATN180000000000000100
P21328439600019800000000000305000000084329000ANEL MILHO                                        UN    ATN180000000000000100
P21328439600019800000000000306000000084329000ANTI PULO                                         UN    ATN180000000000000100
P21328439600019800000000000307000000038089299ANTRACOL 700 WP 5 KG                              KG    ATN180000000000000100
P21328439600019800000000000308000000038089299APPROVE 05 KG                                     KG    ATN180000000000000100
P21328439600019800000000000309000000038089329ARAMO 05LT                                        LT    ATN180000000000000100
P21328439600019800000000000310000000038089329ARREIO PASTO 01LT                                 LT    ATN180000000000000100
P21328439600019800000000000311000000038089329ARREIO PASTO 05LT                                 LT    ATN180000000000000100
P21328439600019800000000000312000000038089329ARREIO PASTO 20LT                                 LT    ATN180000000000000100
P21328439600019800000000000313000000034029019ASSIST 01LT                                       LT    ATN180000000000000100
P21328439600019800000000000314000000034029019ASSIST 05LT                                       LT    ATN180000000000000100
P21328439600019800000000000315000000034029019ASSIST 20LT                                       LT    ATN180000000000000100
P21328439600019800000000000316000000038089199ATABRON 50CE 01LT                                 LT    ATN180000000000000100
P21328439600019800000000000317000000038089199ATABRON 50CE 05LT                                 LT    ATN180000000000000100
P21328439600019800000000000318000000038089329ATECTRA- 10LT                                     LT    ATN180000000000000100
P21328439600019800000000000319000000038089299ATIVUM EC. 05 LT                                  LT    ATN180000000000000100
P21328439600019800000000000320000000038089299ATIVUM EC. 10 LT                                  LT    ATN180000000000000100
P21328439600019800000000000321000000038089323ATRAZINA 500SC ALAMOS 20LT                        LT    ATN180000000000000100
P21328439600019800000000000322000000038089323ATRAZINA ACLAMADO BR 05LT                         LT    ATN180000000000000100
P21328439600019800000000000323000000038089323ATRAZINA ACLAMADO BR 20LT                         LT    ATN180000000000000100
P21328439600019800000000000324000000038089323ATRAZINA ATANOR 05LT                              LT    ATN180000000000000100
P21328439600019800000000000325000000038089323ATRAZINA ATANOR 20LT                              LT    ATN180000000000000100
P21328439600019800000000000326000000038089323ATRAZINA FACERO 500 SC 20LT                       LT    ATN180000000000000100
P21328439600019800000000000327000000038089323ATRAZINA NORTOX 500 SC 05LT                       LT    ATN180000000000000100
P21328439600019800000000000328000000038089323ATRAZINA NORTOX 500 SC 10LT                       LT    ATN180000000000000100
P21328439600019800000000000329000000038089323ATRAZINA NORTOX 500 SC 20LT                       LT    ATN180000000000000100
P21328439600019800000000000330000000038089323ATRAZINA PROOF 500SC 20LT                         LT    ATN180000000000000100
P21328439600019800000000000331000000038089291AUMENAX 05LT                                      LT    ATN180000000000000100
P21328439600019800000000000332000000034029029AUREO EC720 05LT                                  LT    ATN180000000000000100
P21328439600019800000000000333000000034029029AUREO EC720 20LT                                  LT    ATN180000000000000100
P21328439600019800000000000334000000038089329AURORA 400EC 500ML                                UN    ATN180000000000000100
P21328439600019800000000000335000000038089329AURORA 400EC LT                                   LT    ATN180000000000000100
P21328439600019800000000000336000000038089199AVATAR 05LT                                       LT    ATN180000000000000100
P21328439600019800000000000337000000031056000AZHUS - BB 900KG (GESSO AGRICOLA)                 UN    ATN180000000000000100
P21328439600019800000000000338000000030029099AZOS  30 DOSES - 3 LT                             LT    ATN180000000000000000
P21328439600019800000000000339000000085442000BAGUAL AQUA 20 LT                                 LT    ATN180000000000000100
P21328439600019800000000000340000000038089199BALLVERIA 500GR                                   KG    ATN180000000000000100
P21328439600019800000000000341000000031025011BARUC 3,5 LT                                      LT    ATN180000000000000100
P21328439600019800000000000342000000038089329BASAGRAN 600 01LT                                 LT    ATN180000000000000100
P21328439600019800000000000343000000038089329BASAGRAN 600 05LT                                 LT    ATN180000000000000100
P21328439600019800000000000344000000038089993BATENT 1LT                                        LT    ATN180000000000000100
P21328439600019800000000000345000000038089993BATENT 5LT                                        LT    ATN180000000000000100
P21328439600019800000000000346000000038089299BATTLE 10LT                                       LT    ATN180000000000000100
P21328439600019800000000000347000000038089299BAYTAN FS150 01LT                                 LT    ATN180000000000000100
P21328439600019800000000000348000000038089299BAYTAN FS150 20LT DRM BR                          LT    ATN180000000000000100
P21328439600019800000000000349000000038089299BAYTAN FS150 IBC 1000LT                           LT    ATN180000000000000100
P21328439600019800000000000350000000038089199BAZUKA 216 SL 10LT                                LT    ATN180000000000000100
P21328439600019800000000000351000000038089199BAZUKA 216 SL 20LT                                LT    ATN180000000000000100
P21328439600019800000000000352000000038089199BELT SC480 01LT                                   LT    ATN180000000000000100
P21328439600019800000000000353000000038089199BELT SC480 05LT                                   LT    ATN180000000000000100
P21328439600019800000000000354000000038089199BELURE 05LT                                       LT    ATN180000000000000100
P21328439600019800000000000355000000030029099BIAGRO NG 2X45 PCE BAG BR                         LT    ATN180000000000000100
P21328439600019800000000000356000000031029000BIOATIVADOR FOLHA NORTOX 5LT                      LT    ATN180000000000000100
P21328439600019800000000000357000000031029000BIOATIVADOR RAIZ NORTOX LT                        LT    ATN180000000000000100
P21328439600019800000000000358000000025210000BIOATYVO FOS BIG BAG 1000 KG                      T     ATT180000000000000100
P21328439600019800000000000359000000025210000BIOATYVO FOS SC 40KG                              SC    ATN180000000000000100
P21328439600019800000000000360000000031029000BIOBASE 25KG                                      SC    ATN180000000000000100
P21328439600019800000000000361000000031051000BIOGAIN AMINO MN ZN 1LT                           LT    ATN180000000000000100
P21328439600019800000000000362000000031051000BIOMA PHOS SIMBIOSE 1LT                           LT    ATN180000000000000100
P21328439600019800000000000363000000025174900BIOMACRO-SC 25KG - CA 24% + MG 6% S 5% PR         SC    ATN180000000000000100
P21328439600019800000000000364000000031051000BIOZYME TF 01LT                                   LT    ATN180000000000000100
P21328439600019800000000000365000000031051000BIOZYME TF 05LT                                   LT    ATN180000000000000100
P21328439600019800000000000366000000038089199BOLD 05LT                                         LT    ATN180000000000000100
P21328439600019800000000000367000000031051000BOTANIX TERPEX 01LT                               LT    ATN180000000000000100
P21328439600019800000000000368000000031051000BOTANIX TERPEX 05LT                               LT    ATN180000000000000100
P21328439600019800000000000369000000064039190BOTINA ENH 2201 PERSONALIZADA                     UN    ATN180000000000000100
P21328439600019800000000000370000000030029099BRADYRHIZOBIUM NORTOX 1,5LT                       LT    ATN180000000000000100
P21328439600019800000000000371000000025210000BRAVYA PERFYL CA 26% + MGO 11% + S12,5% SC 40 KG  SC    ATT180000000000000100
P21328439600019800000000000372000000038089199BRIGADE 100 EC 1 LT                               LT    ATN180000000000000000
P21328439600019800000000000373000000038089199BRILHANTE BR 05LT                                 LT    ATN180000000000000100
P21328439600019800000000000374000000038089199BRILHANTE BR 20LT                                 LT    ATN180000000000000100
P21328439600019800000000000375000000038089299BRIO 01LT                                         LT    ATN180000000000000100
P21328439600019800000000000376000000038089299BRIO 05LT                                         LT    ATN180000000000000100
P21328439600019800000000000377000000038089299BRISA WG PCT 2KG                                  KG    ATN180000000000000100
P21328439600019800000000000378000000038089999BRT ATTACK- 1KG                                   KG    ATN180000000000000100
P21328439600019800000000000379000000038089999BRT BLOCK- 1KG                                    KG    ATN180000000000000100
P21328439600019800000000000380000000038089199BRUTUS 01 LT                                      LT    ATN180000000000000100
P21328439600019800000000000381000000038089199BRUTUS 05 LT                                      LT    ATN180000000000000100
P21328439600019800000000000382000000038089199BULLDOCK SC125 12X1L BOT BR                       LT    ATN180000000000000100
P21328439600019800000000000383000000031056000CAL Z - BB 1000KG                                 T     ATN180000000000000100
P21328439600019800000000000384000000031056000CAL Z - SC 40KG                                   SC    ATN180000000000000100
P21328439600019800000000000385000000031056000CAL Z + S - BB 1000KG                             T     ATN180000000000000100
P21328439600019800000000000386000000031056000CAL Z + S - SC 40KG                               SC    ATN180000000000000100
P21328439600019800000000000387000000031056000CAL Z + S + B - BB 1000KG                         T     ATN180000000000000100
P21328439600019800000000000388000000031056000CAL Z + S + B - SC 40KG                           SC    ATN180000000000000100
P21328439600019800000000000389000000031059090CAL Z + S+ ZN - BB 1000KG                         T     ATN180000000000000100
P21328439600019800000000000390000000025210000CAL Z + S+ ZN - SC 40KG                           SC    ATN180000000000000100
P21328439600019800000000000391000000025210000CALCARIO CALCITICO  GRANEL TIPO C                 T     ATT180000000000000100
P21328439600019800000000000392000000025182000CALCARIO DOLOMITICO GRANEL TIPO C                 T     ATT180000000000000100
P21328439600019800000000000393000000025221000CALCARIO OXYFERTIL 54.18                          SC    ATN180000000000000100
P21328439600019800000000000394000000025221000CALCARIO OXYFERTIL 9000F                          SC    ATN180000000000000100
P21328439600019800000000000395000000025210000CALCARIO ZYRMAG+S 26,5CA 11,6 MG 5S - 40KG        SC    ATN180000000000000100
P21328439600019800000000000396000000025210000CALCARIO ZYRMAG+S 26,5CA 11,6 MG 5S - BB1000KG    T     ATN180000000000000100
P21328439600019800000000000397000000038089321CALLISTO 01LT                                     LT    ATN180000000000000100
P21328439600019800000000000398000000025183000CALTEC + NUTRICAO - BB 1000KG                     T     ATT180000000000000100
P21328439600019800000000000399000000025183000CALTEC + NUTRICAO - SC 25KG                       SC    ATT180000000000000100
P21328439600019800000000000400000000025174900CALTEC CORRECAO 180 - BB 1000KG                   T     ATT180000000000000100
P21328439600019800000000000401000000025174900CALTEC CORRECAO 180 - SC 25KG                     SC    ATT180000000000000100
P21328439600019800000000000402000000025183000CALTEC NUTRICAO 100 - BB 1000KG                   T     ATT180000000000000100
P21328439600019800000000000403000000025183000CALTEC NUTRICAO 100 - SC 25KG                     SC    ATT180000000000000100
P21328439600019800000000000404000000031056000CALTIM + S - BBAG 1000KG                          T     ATN180000000000000100
P21328439600019800000000000405000000031056000CALTIM + S - SC 40KG                              SC    ATN180000000000000100
P21328439600019800000000000406000000031056000CALTIM + S + B - BBAG 1000KG                      T     ATN180000000000000100
P21328439600019800000000000407000000031056000CALTIM + S + B - SC 40KG                          SC    ATN180000000000000100
P21328439600019800000000000408000000038089199CALYPSO SC480 01LT                                LT    ATN180000000000000100
P21328439600019800000000000409000000031056000CALZ + S + B BIG BAG  1000KG                      T     ATN180000000000000100
P21328439600019800000000000410000000038089329CAMP-D 01LT                                       LT    ATN180000000000000100
P21328439600019800000000000411000000038089329CAMP-D 05LT                                       LT    ATN180000000000000100
P21328439600019800000000000412000000038089329CAMP-D 20LT                                       LT    ATN180000000000000100
P21328439600019800000000000413000000038089199CAPATAZ BR 01LT                                   LT    ATN180000000000000100
P21328439600019800000000000414000000038089199CAPATAZ BR 05LT                                   LT    ATN180000000000000100
P21328439600019800000000000415000000038089199CAPATAZ BR 20LT                                   LT    ATN180000000000000100
P21328439600019800000000000416000000038089299CARBENDAZIM NORTOX 05LT                           LT    ATN180000000000000100
P21328439600019800000000000417000000038089299CARBENDAZIM NORTOX 10LT                           LT    ATN180000000000000100
P21328439600019800000000000418000000038089299CARBOMAX 500SC 05LT                               LT    ATN180000000000000100
P21328439600019800000000000419000000028365000CARBONATO DE CALCIO                               KG    ATN180000000000000100
P21328439600019800000000000420000000038089329CARDEAL 05LT                                      LT    ATN180000000000000100
P21328439600019800000000000421000000038089329CARTAGO 05LT                                      LT    ATN180000000000000100
P21328439600019800000000000422000000031052000CATRON 20LT                                       LT    ATN180000000000000100
P21328439600019800000000000423000000038089199CEFANOL 2KG                                       KG    ATN180000000000000100
P21328439600019800000000000424000000038089429CELENCO AG + 05LT                                 LT    ATN180000000000000100
P21328439600019800000000000425000000038089429CELENCO DC PRIME 05LT                             LT    ATN180000000000000100
P21328439600019800000000000426000000038089299CENSOR SC 500 01 LT                               LT    ATN180000000000000100
P21328439600019800000000000427000000038089299CERCOBIN 500 SC 10LT                              LT    ATN180000000000000100
P21328439600019800000000000428000000038089299CERCOBIN 875 WP 05KG                              KG    ATN180000000000000100
P21328439600019800000000000429000000038089199CERTERO SC480 01LT                                LT    ATN180000000000000100
P21328439600019800000000000430000000038089199CERTERO SC480 05LT                                LT    ATN180000000000000100
P21328439600019800000000000431000000038089299CERTEZA 01LT                                      LT    ATN180000000000000100
P21328439600019800000000000432000000038089299CERTEZA 05LT                                      LT    ATN180000000000000100
P21328439600019800000000000433000000038089199CINELLI 5LT                                       LT    ATN180000000000000100
P21328439600019800000000000434000000038089192CIPERMETRINA NORTOX 250CE 01LT                    LT    ATN180000000000000100
P21328439600019800000000000435000000038089192CIPERMETRINA NORTOX 250CE 05LT                    LT    ATN180000000000000100
P21328439600019800000000000436000000038089329CLASSIC 300 GR                                    KG    ATT180000000000000100
P21328439600019800000000000437000000038089329CLETODIM NORTOX 05LT                              LT    ATN180000000000000100
P21328439600019800000000000438000000038089329CLETODIM NORTOX 20LT                              LT    ATN180000000000000100
P21328439600019800000000000439000000038089329CLIPPER SINON (CLORIMURON) 300 GR                 KG    ATN180000000000000100
P21328439600019800000000000440000000031042010CLORETO DE POTASSIO 00.00.60 BB 1000KG            T     ATN180000000000000100
P21328439600019800000000000441000000031042010CLORETO DE POTASSIO 00.00.60 SC 50KG              SC    ATN180000000000000100
P21328439600019800000000000442000000031042010CLORETO DE POTASSIO 60% BB 500KG                  UN    ATN180000000000000100
P21328439600019800000000000443000000038089329CLORIM PCT 300 GR                                 KG    ATN180000000000000100
P21328439600019800000000000444000000038089329CLORIMURON CCAB 250 WG 300 GR                     KG    ATN180000000000000100
P21328439600019800000000000445000000038089329CLORIMURON NORTOX 1KG                             KG    ATN180000000000000100
P21328439600019800000000000446000000038089329CLORIMURON NORTOX 300 GR                          KG    ATN180000000000000100
P21328439600019800000000000447000000038089199CLORPIRIFOS FERSOL 480 EC 10LT                    LT    ATN180000000000000100
P21328439600019800000000000448000000038089299COMET 01LT                                        LT    ATN180000000000000100
P21328439600019800000000000449000000038089299COMET 05LT                                        LT    ATN180000000000000100
P21328439600019800000000000450000000031059090COMO 01LT                                         LT    ATN180000000000000100
P21328439600019800000000000451000000085442000COMO NORTOX 01LT                                  LT    ATN180000000000000100
P21328439600019800000000000452000000085442000COMO NORTOX 05LT                                  LT    ATN180000000000000100
P21328439600019800000000000453000000031024000COMO NORTOX SOL AGUA CO - 1LT                     LT    ATN180000000000000100
P21328439600019800000000000454000000031024000COMO NORTOX SOL AGUA CO - 5LT                     LT    ATN180000000000000100
P21328439600019800000000000455000000031051000COMO OMNIA 1 LT                                   LT    ATN180000000000000100
P21328439600019800000000000456000000031059090COMO PLATINUM 01LT                                LT    ATN180000000000000100
P21328439600019800000000000457000000031059090COMO PLATINUM 05LT                                LT    ATN180000000000000100
P21328439600019800000000000458000000031059090COMO PLATINUM 20LT                                LT    ATN180000000000000100
P21328439600019800000000000459000000031051000COMOPHOS 01LT                                     LT    ATN180000000000000100
P21328439600019800000000000460000000031059090CONCORDE BALDE 20LT                               LT    ATN180000000000000100
P21328439600019800000000000461000000062102000CONJUNTO PESTICIDA STYLLE BASIC COM VISEIRA GCA   UN    ATN180000000000000100
P21328439600019800000000000462000000062104000CONJUNTO PESTICIDA STYLLE BASIC COM VISEIRA GCA G UN    ATN180000000000000100
P21328439600019800000000000463000000062104000CONJUNTO PESTICIDA STYLLE BASIC COM VISEIRA GCA GGUN    ATN180000000000000100
P21328439600019800000000000464000000038089199CONNECT EC112,5 01LT                              LT    ATN180000000000000100
P21328439600019800000000000465000000038089199CONNECT EC112,5 05LT                              LT    ATN180000000000000100
P21328439600019800000000000466000000038089199CONNECT EC112,5 20LT                              LT    ATN180000000000000100
P21328439600019800000000000467000000032041700CORANTE COLOR SEED AZUL 05LT                      LT    ATN180000000000000100
P21328439600019800000000000468000000035069120CORANTE COLOR SEED AZUL 20LT                      LT    ATN180000000000000100
P21328439600019800000000000469000000035069120CORANTE COLOR SEED VERDE 05LT                     LT    ATN180000000000000100
P21328439600019800000000000470000000035069120CORANTE COLOR SEED VERDE 20 LT                    LT    ATN180000000000000100
P21328439600019800000000000471000000032041700CORANTE COLOR SEED VERMELHO 05 LT                 LT    ATN180000000000000100
P21328439600019800000000000472000000035069120CORANTE COLOR SEED VERMELHO 20 LT                 LT    ATN180000000000000100
P21328439600019800000000000473000000032041700CORANTE HI-LIGHT AZUL 01LT                        LT    ATN180000000000000100
P21328439600019800000000000474000000032041700CORANTE POLYDRY 05KG                              KG    ATN180000000000000100
P21328439600019800000000000475000000032041700CORANTE POLYDRY 25KG                              KG    ATN180000000000000100
P21328439600019800000000000476000000032041300CORANTE VERMELHO BRILHANTE 100 ML                 LT    ATN180000000000000100
P21328439600019800000000000477000000038089299CRONNOS 05LT                                      LT    ATN180000000000000100
P21328439600019800000000000478000000038089299CRONNOS 20 LT                                     LT    ATN180000000000000100
P21328439600019800000000000479000000031052000CROP 30 MOL- 1000LT                               LT    ATN180000000000000100
P21328439600019800000000000480000000031021090CROP ACTIVE DEFENDER 05 LT                        LT    ATN180000000000000100
P21328439600019800000000000481000000031052000CROP POTASSIUM- 5LT                               LT    ATN180000000000000100
P21328439600019800000000000482000000031052000CROP POTASSIUM- BD20LT                            LT    ATN180000000000000100
P21328439600019800000000000483000000038089199CROPSTAR FS600 01LT                               LT    ATN180000000000000100
P21328439600019800000000000484000000038089199CROPSTAR FS600 05LT                               LT    ATN180000000000000100
P21328439600019800000000000485000000038089199CROPSTAR FS600 1000LT                             LT    ATN180000000000000100
P21328439600019800000000000486000000038089329CRUCIAL 05LT                                      LT    ATN180000000000000100
P21328439600019800000000000487000000038089329CRUCIAL 20LT                                      LT    ATN180000000000000100
P21328439600019800000000000488000000038089199CRUISER 350 FS 5LT                                LT    ATN180000000000000100
P21328439600019800000000000489000000031052000CUBO FERT.FOLIAR 1LT                              LT    ATN180000000000000100
P21328439600019800000000000490000000031052000CUBO SPRAYTEC BEG 02LT                            LT    ATN180000000000000100
P21328439600019800000000000491000000031052000CUPROQUART NTX 05LT                               LT    ATN180000000000000100
P21328439600019800000000000492000000031021090CUPROZIN ULTRA 20 LTS                             LT    ATN180000000000000100
P21328439600019800000000000493000000031021090CUPROZIN ULTRA 5 LTS                              LT    ATN180000000000000100
P21328439600019800000000000494000000038089199CURBIX SC200 - 01LT                               LT    ATN180000000000000100
P21328439600019800000000000495000000038089199CURYOM 550 EC 20LT                                LT    ATN180000000000000100
P21328439600019800000000000496000000038089299CYPRESS 400 EC 01LT                               LT    ATN180000000000000100
P21328439600019800000000000497000000038089299CYPRESS 400 EC 05LT                               LT    ATN180000000000000100
P21328439600019800000000000498000000038089192CYPTRIN 250CE 01LT                                LT    ATN180000000000000100
P21328439600019800000000000499000000038089192CYPTRIN 250CE 05LT                                LT    ATN180000000000000100
P21328439600019800000000000500000000034029029DASH HC 05LT                                      LT    ATN180000000000000100
P21328439600019800000000000501000000038089199DECIS 25CE 01LT                                   LT    ATN180000000000000100
P21328439600019800000000000502000000038089199DECIS 25CE 250ML                                  LT    ATN180000000000000100
P21328439600019800000000000503000000031059019DEFENSE 05LT                                      LT    ATN180000000000000100
P21328439600019800000000000504000000013023220DEFINE 250GR                                      KG    ATN180000000000000100
P21328439600019800000000000505000000038089359DEORO EC125 1LT                                   LT    ATN180000000000000100
P21328439600019800000000000506000000038089329DERMACOR 01 LT                                    LT    ATN180000000000000100
P21328439600019800000000000507000000038089299DEROSAL 500SC 05LT                                LT    ATN180000000000000100
P21328439600019800000000000508000000038089299DEROSAL PLUS FS500 01LT                           LT    ATN180000000000000100
P21328439600019800000000000509000000038089299DEROSAL PLUS FS500 05LT                           LT    ATN180000000000000100
P21328439600019800000000000510000000038089299DEROSAL PLUS FS500 1000LT                         LT    ATN180000000000000100
P21328439600019800000000000511000000038089999DETONATOR BD 20LT                                 LT    ATN180000000000000100
P21328439600019800000000000512000000038089199DICARZOL 500 SP PCT 500GR                         KG    ATN180000000000000100
P21328439600019800000000000513000000038089299DIFERE 05 LT  (OXICLORETO DE COBRE)               LT    ATN180000000000000100
P21328439600019800000000000514000000038089199DIFLUMAX 05LT                                     LT    ATN180000000000000100
P21328439600019800000000000515000000038089199DIFLUMAX HELM SC 240 01LT                         LT    ATN180000000000000100
P21328439600019800000000000516000000038089199DIMAX 480 SC 01LT                                 LT    ATN180000000000000100
P21328439600019800000000000517000000038089199DIMILIN 80WG 500 GR                               KG    ATN180000000000000100
P21328439600019800000000000518000000038089322DINAXINE (2,4D) 20LT                              LT    ATN180000000000000100
P21328439600019800000000000519000000084329000DISCO DE MILHO                                    UN    ATN180000000000000100
P21328439600019800000000000520000000084329000DISCO RAMPA CONV N 8.5 - ROSA                     UN    ATN180000000000000100
P21328439600019800000000000521000000084329000DISCO RAMPFLOW MILHO                              UN    ATN180000000000000100
P21328439600019800000000000522000000038089321DMA 806BR 05LT                                    LT    ATN180000000000000100
P21328439600019800000000000523000000038089321DMA 806BR 20LT                                    LT    ATN180000000000000100
P21328439600019800000000000524000000038089329DOMINUM 05LT                                      LT    ATN180000000000000100
P21328439600019800000000000525000000038089329DOMINUM 20LT                                      LT    ATN180000000000000100
P21328439600019800000000000526000000038089329DORADO 01 LT                                      LT    ATN180000000000000100
P21328439600019800000000000527000000038089329DORADO 05 LT                                      LT    ATN180000000000000100
P21328439600019800000000000528000000038089329DORADO 20 LT                                      LT    ATN180000000000000100
P21328439600019800000000000529000000038089299ELATUS 01KG                                       KG    ATN180000000000000100
P21328439600019800000000000530000000038089299ELATUS 05 KG                                      KG    ATN180000000000000100
P21328439600019800000000000531000000031055900ENERGY 10KG                                       KG    ATN180000000000000100
P21328439600019800000000000532000000038089322ENLIST COLEX-D BD 20 LTS                          LT    ATN180000000000000100
P21328439600019800000000000533000000062102000EPI VEST SEGURA TRATORIZADO ZIP- G                UN    ATN180000000000000100
P21328439600019800000000000534000000062102000EPI VEST SEGURA TRATORIZADO ZIP- LG               UN    ATN180000000000000100
P21328439600019800000000000535000000038089299ERRADIC 01LT                                      LT    ATN180000000000000100
P21328439600019800000000000536000000084329000ESCOVAFLEX                                        UN    ATN180000000000000100
P21328439600019800000000000537000000038089197ESPALHANTE ADESIVO ENERGIC 1 LT                   LT    ATN180000000000000000
P21328439600019800000000000538000000031049090ESSENCE- 10LT                                     LT    ATN180000000000000100
P21328439600019800000000000539000000038089359ETHREL SL720 05LT                                 LT    ATN180000000000000100
P21328439600019800000000000540000000038089199EVIDENCE WG70 1KG                                 KG    ATN180000000000000100
P21328439600019800000000000541000000038089199EVIDENCE WG70 30 GR                               KG    ATN180000000000000100
P21328439600019800000000000542000000031029000EVO BOR SOLO- 10LT                                LT    ATN180000000000000100
P21328439600019800000000000543000000031029000EVO K- 10LT                                       LT    ATN180000000000000100
P21328439600019800000000000544000000038089299EVOS 05LT                                         LT    ATN180000000000000100
P21328439600019800000000000545000000038089199EXALT 01LT                                        LT    ATN180000000000000100
P21328439600019800000000000546000000038089199EXALT 5LT                                         LT    ATN180000000000000100
P21328439600019800000000000547000000038089322EXEMPLO (2,4 - D) 20LT                            LT    ATN180000000000000100
P21328439600019800000000000548000000038089321EXTRAZIN SC 05LT                                  LT    ATN180000000000000100
P21328439600019800000000000549000000038089329FASCINATE 200 BR 05 LT                            LT    ATN180000000000000100
P21328439600019800000000000550000000038089329FASCINATE 200 BR 20 LT                            LT    ATN180000000000000100
P21328439600019800000000000551000000038089199FASTAC 100CE 01LT                                 LT    ATN180000000000000100
P21328439600019800000000000552000000038089199FASTAC DUO 01LT                                   LT    ATN180000000000000100
P21328439600019800000000000553000000038089199FASTAC DUO 05LT                                   LT    ATN180000000000000100
P21328439600019800000000000554000000038089299FEGATEX NORTOX 05LT                               LT    ATN180000000000000100
P21328439600019800000000000555000000031056000FERT 00.52.34 KRISTA MKP - 25KG                   SC    ATN180000000000000100
P21328439600019800000000000556000000031052000FERT PICK UP ARREL 01 LT                          LT    ATN180000000000000000
P21328439600019800000000000557000000031052000FERT STALLION CROP 05LT                           LT    ATN180000000000000100
P21328439600019800000000000558000000031051000FERT TRIPLO N CROPFIELD 1000LT                    LT    ATN180000000000000100
P21328439600019800000000000559000000031052000FERT. AWAKEN ML                                   LT    ATN180000000000000100
P21328439600019800000000000560000000031052000FERT. FOLIAR TRACTUS KIT 12KG                     KG    ATN180000000000000100
P21328439600019800000000000561000000031052000FERT. FOLIAR TRACTUS KIT 4KG                      KG    ATN180000000000000100
P21328439600019800000000000562000000031052000FERT. SUPERBAC 02.10.10 BB 1000 KG                T     ATN180000000000000100
P21328439600019800000000000563000000031052000FERT. SUPERBAC 02.15.12 BB 1000 KG                T     ATN180000000000000000
P21328439600019800000000000564000000031059019FERTILIZANTE CHAMPION PLUS 5LT RAMOS              LT    ATN180000000000000100
P21328439600019800000000000565000000031052000FERTILIZANTE MINERAL COMPLEXO YARAMILA SOBERANO 05SC    ATN180000000000000100
P21328439600019800000000000566000000031052000FERTILIZANTE MINERAL COMPLEXO YARAMILA SOBERANO 05T     ATN180000000000000100
P21328439600019800000000000567000000031056000FERTILIZANTE MINERAL MISTO - CYSY+S BB 1000KG     T     ATN180000000000000100
P21328439600019800000000000568000000031052000FERTILIZANTE MINERAL MISTO TREEPHOS 40KG          SC    ATN180000000000000100
P21328439600019800000000000569000000031052000FERTILIZANTE MINERAL MISTO TREEPHOS- BB           T     ATN180000000000000100
P21328439600019800000000000570000000031052000FERTILIZANTE NITROCALCIO 27-00-00 -50 KG          SC    ATN180000000000000100
P21328439600019800000000000571000000031052000FERTILIZANTE NITROCALCIO 27-00-00 -BB             T     ATN180000000000000100
P21328439600019800000000000572000000031052000FERTILIZANTE NITROSSULFOCALCIO 27%N+5%CA+3,7%S    SC    ATN180000000000000100
P21328439600019800000000000573000000031051000FERTILIZANTE ORGANOMINERAL 01LT                   LT    ATN180000000000000100
P21328439600019800000000000574000000031049090FH K+ 00-00-52 + 1%MG + 1,2%S 2KG                 KG    ATN180000000000000100
P21328439600019800000000000575000000038089329FINALE SL200 10LT                                 LT    ATN180000000000000100
P21328439600019800000000000576000000038089199FIPRONIL ALTA 250 FS 01LT                         LT    ATN180000000000000100
P21328439600019800000000000577000000038089199FIPRONIL ALTA 250 FS 05LT                         LT    ATN180000000000000100
P21328439600019800000000000578000000038089199FIPRONIL NORTOX 1LT                               LT    ATN180000000000000100
P21328439600019800000000000579000000038089199FIPRONIL NORTOX 5LT                               LT    ATN180000000000000100
P21328439600019800000000000580000000038089199FIPRONIL NORTOX 800 WG 1KG                        KG    ATN180000000000000100
P21328439600019800000000000581000000038089199FIPRONIL NORTOX 800 WG 500GR                      KG    ATN180000000000000100
P21328439600019800000000000582000000031029000FISIO TON 4X1 1LT                                 LT    ATN180000000000000100
P21328439600019800000000000583000000031029000FISIO TON 4X5 - 05LT                              LT    ATN180000000000000100
P21328439600019800000000000584000000031029000FITOPLUS 01 LT                                    LT    ATN180000000000000100
P21328439600019800000000000585000000031052000FITOPLUS 05 LT                                    LT    ATN180000000000000100
P21328439600019800000000000586000000038089325FLAK 200 SL(PARAQUAT) 20LT                        LT    ATN180000000000000100
P21328439600019800000000000587000000038089329FLEX 01LT                                         LT    ATN180000000000000100
P21328439600019800000000000588000000038089329FLEX 05LT                                         LT    ATN180000000000000100
P21328439600019800000000000589000000038089322FLUENTE 2,4 D 20 LT                               LT    ATN180000000000000100
P21328439600019800000000000590000000038089329FLUMYZIN 500 100GR                                KG    ATT180000000000000100
P21328439600019800000000000591000000038089329FLUMYZIN 500 SC 01LT                              LT    ATN180000000000000100
P21328439600019800000000000592000000031055900FOCUS 1LT                                         LT    ATN180000000000000100
P21328439600019800000000000593000000031055900FOCUS 5LT                                         LT    ATN180000000000000100
P21328439600019800000000000594000000038089299FOLICUR EC200 01LT                                LT    ATN180000000000000100
P21328439600019800000000000595000000031051000FOLTRON 01LT                                      LT    ATN180000000000000100
P21328439600019800000000000596000000031051000FOLTRON 05LT                                      LT    ATN180000000000000100
P21328439600019800000000000597000000038089999FOSFATO BICALCICO                                 KG    ATN180000000000000100
P21328439600019800000000000598000000025102010FOSFATO NAT. REATIVO HERINGER BB 1000KG           T     ATN180000000000000100
P21328439600019800000000000599000000031059090FOSFITO NTX 20LT                                  LT    ATN180000000000000100
P21328439600019800000000000600000000038089299FOX SC325 05LT TESTE EMERSON                      LT    ATN180000000000000100
P21328439600019800000000000601000000038089299FOX SC325 20LT                                    LT    ATN180000000000000100
P21328439600019800000000000602000000038089299FOX XPRO SC450 05LT                               LT    ATN180000000000000100
P21328439600019800000000000603000000038089429FREXUS AV PLUS                                    LT    ATN180000000000000100
P21328439600019800000000000604000000085442000FREXUS CERES PLUS 1LT                             LT    ATN180000000000000100
P21328439600019800000000000605000000085442000FREXUS CERES PLUS 5LT                             LT    ATN180000000000000000
P21328439600019800000000000606000000028274919FREXUS CH FERTLIZANTES (BALDE 1,0KG)              KG    ATN180000000000000100
P21328439600019800000000000607000000028274919FREXUS CH FERTLIZANTES (BALDE 10,00KG)            KG    ATN180000000000000100
P21328439600019800000000000608000000028274919FREXUS CH FERTLIZANTES (BALDE 4,5KG)              KG    ATN180000000000000100
P21328439600019800000000000609000000038089429FREXUS DC 5LT                                     LT    ATN180000000000000100
P21328439600019800000000000610000000028092019FREXUS PH AGRO 1LT                                LT    ATN180000000000000000
P21328439600019800000000000611000000031055900FULLTEC 01LT                                      LT    ATN180000000000000100
P21328439600019800000000000612000000031055900FULLTEC 05LT                                      LT    ATN180000000000000100
P21328439600019800000000000613000000031055900FULLTEC FERT FOLIAR TB 200LT                      LT    ATN180000000000000100
P21328439600019800000000000614000000038089911FUNG ECOTRICH WO 50 GR                            KG    ATN180000000000000000
P21328439600019800000000000615000000038089299FUNG HELMSTAR PLUS 10LT                           LT    ATN180000000000000100
P21328439600019800000000000616000000038089299FUNG PRISMA 01 LT                                 LT    ATN180000000000000100
P21328439600019800000000000617000000038089299FUSAO EC 10LT                                     LT    ATN180000000000000100
P21328439600019800000000000618000000038089199GALIL SC 01 LT                                    LT    ATN180000000000000100
P21328439600019800000000000619000000038089199GALIL SC 05LT                                     LT    ATN180000000000000100
P21328439600019800000000000620000000038089199GALIL SC 20 LT                                    LT    ATN180000000000000100
P21328439600019800000000000621000000038089322GALOP M 01 LT                                     LT    ATN180000000000000100
P21328439600019800000000000622000000038089322GALOP M 05 LT                                     LT    ATN180000000000000100
P21328439600019800000000000623000000038089322GALOP M 20 LT                                     LT    ATN180000000000000100
P21328439600019800000000000624000000038089199GAME 50 01LT                                      LT    ATN180000000000000100
P21328439600019800000000000625000000038089329GAMIT 500  5 LT                                   LT    ATN180000000000000100
P21328439600019800000000000626000000085442000GC TANQUE 1L                                      LT    ATN180000000000000100
P21328439600019800000000000627000000038089322GESAPRIM 500 CG 20LT                              LT    ATN180000000000000100
P21328439600019800000000000628000000038089329GLADIUM WG60  250GR                               KG    ATN180000000000000100
P21328439600019800000000000629000000038089329GLIFOSATO 720 WG NORTOX 5KG                       KG    ATN180000000000000100
P21328439600019800000000000630000000038089324GLIFOSATO ATANOR 05LT                             LT    ATN180000000000000100
P21328439600019800000000000631000000038089324GLIFOSATO GRASSATO 20LT                           LT    ATN180000000000000100
P21328439600019800000000000632000000038089329GLIFOSATO IPA RAINBOW 05LT                        LT    ATN180000000000000100
P21328439600019800000000000633000000038089324GLIFOSATO NORTOX 05LT                             LT    ATN180000000000000100
P21328439600019800000000000634000000038089324GLIFOSATO NORTOX 20LT                             LT    ATN180000000000000100
P21328439600019800000000000635000000038089324GLIFOSATO POTENSATO 20 LT                         LT    ATN180000000000000100
P21328439600019800000000000636000000038089324GLIFOSATO SHADOW 1 LT                             LT    ATN180000000000000100
P21328439600019800000000000637000000038089324GLIFOSATO SHADOW 20LT                             LT    ATN180000000000000100
P21328439600019800000000000638000000038089324GLIFOSATO SHADOW 5LT                              LT    ATN180000000000000100
P21328439600019800000000000639000000038089329GLI-UP 720 WG - 05KG                              KG    ATN180000000000000100
P21328439600019800000000000640000000038089329GLYPHOTAL TR 720 - 20LT                           LT    ATN180000000000000100
P21328439600019800000000000641000000031052000GRAAN-K 5 KG                                      KG    ATN180000000000000100
P21328439600019800000000000642000000025041000GRAFITE 01KG                                      KG    ATN180000000000000100
P21328439600019800000000000643000000025041000GRAFITE 05KG                                      KG    ATN180000000000000100
P21328439600019800000000000644000000038089325GRAMOCIL 05LT                                     LT    ATN180000000000000100
P21328439600019800000000000645000000038089325GRAMOCIL 20LT                                     LT    ATN180000000000000100
P21328439600019800000000000646000000038089325GRAMOXONE 200 05LT                                LT    ATN180000000000000100
P21328439600019800000000000647000000038089325GRAMOXONE 200 20LT                                LT    ATN180000000000000100
P21328439600019800000000000648000000031052000GRAN-K - K 5X5 KG                                 KG    ATN180000000000000100
P21328439600019800000000000649000000031029000GRANO K TM- 20L                                   LT    ATN180000000000000100
P21328439600019800000000000650000000031059090GREEN IMMUNET 01LT                                LT    ATN180000000000000100
P21328439600019800000000000651000000031059090GREEN IMMUNET 05LT                                LT    ATN180000000000000100
P21328439600019800000000000652000000038089329HEAT FR 350 GR                                    KG    ATN180000000000000100
P21328439600019800000000000653000000038089329HELMOQUAT 20LT                                    LT    ATN180000000000000100
P21328439600019800000000000654000000038089329HELMOXONE 200 05LT                                LT    ATN180000000000000100
P21328439600019800000000000655000000038089329HELMOXONE 200 20 LT                               LT    ATN180000000000000100
P21328439600019800000000000656000000038089299HELMSTAR PLUS 05LT                                LT    ATN180000000000000100
P21328439600019800000000000657000000038089999HELPER AIR ADJUVANTE 1LT                          LT    ATN180000000000000100
P21328439600019800000000000658000000038089999HELPER DESSEK ADJ 01LT                            LT    ATN180000000000000100
P21328439600019800000000000659000000038089999HELPER NEUTRUM 01LT                               LT    ATN180000000000000100
P21328439600019800000000000660000000038089197HELPER NEUTRUM 1 LT                               LT    ATN180000000000000000
P21328439600019800000000000661000000038089199HELYMAX EC 1LT                                    LT    ATN180000000000000100
P21328439600019800000000000662000000038089322HERB 2,4 D NORTOX - 20LT                          LT    ATN180000000000000100
P21328439600019800000000000663000000038089329HERB TRUPER 01 LT                                 LT    ATN180000000000000100
P21328439600019800000000000664000000038089329HERB. PARAQUAT GRAMOXONE 5 LT                     LT    ATN180000000000000100
P21328439600019800000000000665000000038089329HERB. PLANADOR XT 01LT                            LT    ATN180000000000000100
P21328439600019800000000000666000000038089321HERBITRIN 500 BR 05 LT                            LT    ATN180000000000000100
P21328439600019800000000000667000000038089323HERBITRIN 500 BR 20 LT                            LT    ATN180000000000000100
P21328439600019800000000000668000000038089323HERBIZINA PLUS 900 WG 10 KG (ATRAZINA)            KG    ATN180000000000000100
P21328439600019800000000000669000000038089323HERBZINA PLUS- 10KG                               KG    ATN180000000000000100
P21328439600019800000000000670000000038089199HERO 01LT                                         LT    ATN180000000000000100
P21328439600019800000000000671000000038089199HERO 05LT                                         LT    ATN180000000000000100
P21328439600019800000000000672000000034029029HOEFIX EC279 05LT                                 LT    ATN180000000000000100
P21328439600019800000000000673000000031055900HOLD 05LT                                         LT    ATN180000000000000100
P21328439600019800000000000674000000031055900HOLD 20LT                                         LT    ATN180000000000000100
P21328439600019800000000000675000000031029000HORUS 5LT                                         LT    ATN180000000000000100
P21328439600019800000000000676000000031025011HULK 01LT                                         LT    ATN180000000000000100
P21328439600019800000000000677000000031029000HUMAKELP 20 LTS                                   LT    ATN180000000000000100
P21328439600019800000000000678000000031029000HUMAKELP 5 LTS                                    LT    ATN180000000000000100
P21328439600019800000000000679000000038089329HUSSAR WG20 600GR                                 KG    ATN180000000000000100
P21328439600019800000000000680000000031052000ICON COOPER 2LT                                   LT    ATN180000000000000100
P21328439600019800000000000681000000031052000ICON COPPER 2LT                                   LT    ATN180000000000000100
P21328439600019800000000000682000000031052000ICON MANGANES 2LT                                 LT    ATN180000000000000100
P21328439600019800000000000683000000031052000ICON MANGANES 5 LT                                LT    ATN180000000000000100
P21328439600019800000000000684000000031021090ICON ZINC 2LT                                     LT    ATN180000000000000100
P21328439600019800000000000685000000031052000ICON ZMC PLUS TS 2LT                              LT    ATN180000000000000100
P21328439600019800000000000686000000038089999IHAROL GOLD 05 LT                                 LT    ATN180000000000000100
P21328439600019800000000000687000000038089999IHAROL GOLD 20 LT                                 LT    ATN180000000000000100
P21328439600019800000000000688000000038089324IMAZAQUIM ULTRA NORTOX 05LT                       LT    ATN180000000000000000
P21328439600019800000000000689000000038089327IMAZETAPIR PLUS NORTOX 05LT                       LT    ATN180000000000000100
P21328439600019800000000000690000000038089199IMIDACLOPRID 600 01LT                             LT    ATN180000000000000100
P21328439600019800000000000691000000038089199IMIDACLOPRID NORTOX 01LT                          LT    ATN180000000000000100
P21328439600019800000000000692000000038089199IMIDACLOPRID NORTOX 05LT                          LT    ATN180000000000000100
P21328439600019800000000000693000000038089199IMIDACLOPRID NORTOX 10LT                          LT    ATN180000000000000100
P21328439600019800000000000694000000031052000IMPROVER RN 05LT                                  LT    ATN180000000000000100
P21328439600019800000000000695000000038089199IMUNIT 01LT                                       LT    ATN180000000000000100
P21328439600019800000000000696000000038089299INFINITO SC687,5 01 LT                            LT    ATN180000000000000100
P21328439600019800000000000697000000038089299INFINITO SC687,5 500ML                            LT    ATN180000000000000100
P21328439600019800000000000698000000030029099INOC ADHERE 60 BE 1X25 DS                         KG    ATN180000000000000100
P21328439600019800000000000699000000030029099INOC ALADIN PLUS NOD 20 DS                        LT    ATN180000000000000100
P21328439600019800000000000700000000030029099INOC BIOMA RHYZO FEIJAO 15 DOSES                  LT    ATN180000000000000100
P21328439600019800000000000701000000030029099INOC BRASILEC TS IN-BOX 1X10 DS                   KG    ATN180000000000000000
P21328439600019800000000000702000000030029099INOC BRASILEC TS ON-TIME 1X15 DS                  LT    ATN180000000000000100
P21328439600019800000000000703000000030029099INOC BRASILEC TS ON-TIME 1X30 DS                  LT    ATN180000000000000100
P21328439600019800000000000704000000030029099INOC CROPBIO AZO LIQ 15 DS                        LT    ATN180000000000000100
P21328439600019800000000000705000000030029099INOC CROPBIO FEIJAO LIQ 15 DS                     LT    ATN180000000000000100
P21328439600019800000000000706000000030029099INOC CROPBIO PHOS LIQ 15 DS                       LT    ATN180000000000000100
P21328439600019800000000000707000000030029099INOC CROPBIO PHOS LIQ 30 DS                       LT    ATN180000000000000100
P21328439600019800000000000708000000031059090INOC CROPBIO SOJA LIQ 30 DS                       LT    ATN180000000000000100
P21328439600019800000000000709000000030029099INOC CROPBIO TURFA 10 DS                          KG    ATN180000000000000100
P21328439600019800000000000710000000030029099INOC GELFIX 5 BE SOJA - 3LT - 30DOSES             LT    ATN180000000000000100
P21328439600019800000000000711000000030029099INOC GELFIX 5 SOYBEAN LIQ 01LT (10DOS)            LT    ATN180000000000000100
P21328439600019800000000000712000000030029099INOC GELFIX 5 SOYBEAN LIQ 03LT (30 DOS)           LT    ATN180000000000000100
P21328439600019800000000000713000000030029099INOC GRAMMY CROP IN BOX TURFA 1X6 DS              KG    ATN180000000000000100
P21328439600019800000000000714000000030029099INOC GRAMMY CROP LIQUIDO 1X15 DS                  LT    ATN180000000000000100
P21328439600019800000000000715000000030029099INOC KIT TEC TAS ON-FARM NOD+PTG 1X30 DS          KG    ATN180000000000000100
P21328439600019800000000000716000000030029099INOC LIQUIDO AZUSPIRILLUM                         LT    ATN180000000000000100
P21328439600019800000000000717000000030029099INOC LIQUIDO FEIJAO 15 DOSES                      LT    ATN180000000000000100
P21328439600019800000000000718000000030029099INOC MASTERFIX L GRAMINEAS 05DOSES                LT    ATN180000000000000100
P21328439600019800000000000719000000030029099INOC MASTERFIX L GRAMINEAS 1X15DOSES              LT    ATN180000000000000100
P21328439600019800000000000720000000030029099INOC MASTERFIX L PREMIER                          LT    ATN180000000000000100
P21328439600019800000000000721000000031029000INOC MASTERFIX L PREMIER 20LT                     LT    ATN180000000000000100
P21328439600019800000000000722000000030029099INOC MASTERFIX L SOJA 15DOSES                     LT    ATN180000000000000100
P21328439600019800000000000723000000030029099INOC MASTERFIX TURFA FEIJAO 5DOSES                KG    ATN180000000000000100
P21328439600019800000000000724000000030029099INOC MASTERFIX TURFA SOJA 5 DOSES                 KG    ATN180000000000000100
P21328439600019800000000000725000000030029099INOC MR. BEAN FEIJAO TURFA 7 DS                   KG    ATN180000000000000000
P21328439600019800000000000726000000030029099INOC NITRO1000 LIQUIDO COINOCULACAO AZOSPIRILLUM 1LT    ATN180000000000000100
P21328439600019800000000000727000000030029099INOC NITRO1000 LIQUIDO SOJA 15DOSES               LT    ATN180000000000000100
P21328439600019800000000000728000000030029099INOC NITRO1000 TURFA SOJA 5DOSES                  KG    ATN180000000000000100
P21328439600019800000000000729000000030029099INOC PARA SILAGEM 11C33                           KG    ATN180000000000000100
P21328439600019800000000000730000000030029099INOC SOJA FORT TURFA IN BOX 1X5 DS                KG    ATN180000000000000100
P21328439600019800000000000731000000030029099INOC SOJA TOT NITRO FULL 15 DOSES                 LT    ATN180000000000000100
P21328439600019800000000000732000000031059090INOC STARFIX FEIJAO 30 DS                         LT    ATN180000000000000100
P21328439600019800000000000733000000030029099INOC TOTAL NITRO ULTRA SOJA TURFA 07 DS           KG    ATN180000000000000100
P21328439600019800000000000734000000030029099INOC TURFA FEIJAO 5 DOSES                         KG    ATN180000000000000100
P21328439600019800000000000735000000030029099INOC,  PARA SOJA NITRO 1000 15DOSES               LT    ATN180000000000000100
P21328439600019800000000000736000000030029099INOC. ADHERE 60 BE 300 DS - 1.5KG                 KG    ATN180000000000000100
P21328439600019800000000000737000000030029099INOC. AZOTOTAL MAX SOJA - 1.5KG                   KG    ATN180000000000000100
P21328439600019800000000000738000000030029099INOC. BASFOLIAR NITROMAX SOJA  LIQUIDO (15 DOSES) LT    ATN180000000000000100
P21328439600019800000000000739000000030029099INOC. BASFOLIAR NITROMAX SOJA TURFOSO (5 DOSES)   KG    ATN180000000000000100
P21328439600019800000000000740000000030029099INOC. BIOMA BRADY SOJA LIQUIDO 10 DOSES           LT    ATN180000000000000100
P21328439600019800000000000741000000030029099INOC. BIOMA BRADY TURFOSO 12 DOSES                KG    ATN180000000000000100
P21328439600019800000000000742000000030029099INOC. BIOMA MAIS LIQUIDO MILHO 20 DOSES           LT    ATN180000000000000100
P21328439600019800000000000743000000030029099INOC. BIOMA MAIS TURFOSO (MILHO E TRIGO) 9 DOSES  KG    ATN180000000000000100
P21328439600019800000000000744000000030029099INOC. BIOMA PHOS MILHO 1 LT                       LT    ATN180000000000000100
P21328439600019800000000000745000000030029099INOC. BIOMA PHOS MILHO 2LT                        LT    ATN180000000000000100
P21328439600019800000000000746000000030029099INOCULANTE LIQUIDO CROPBIO 30DS                   LT    ATN180000000000000100
P21328439600019800000000000747000000030029099INOCULANTE NITRO1000- 15DS                        LT    ATN180000000000000100
P21328439600019800000000000748000000030029099INOCULANTE STARFIX SOJA 3 LITROS 50 DOSES         LT    ATN180000000000000000
P21328439600019800000000000749000000030029099INOCULANTE STARFIX SOJA 3LT (36 DOSES)            LT    ATN180000000000000100
P21328439600019800000000000750000000030029099INOCULANTE TURFOSO CROPBIO 10DS                   KG    ATN180000000000000100
P21328439600019800000000000751000000038089199INS. MUCH 600FS ML TOX,III 1 LT                   LT    ATN180000000000000000
P21328439600019800000000000752000000038089199INTEPRID 240 SC 05LT                              LT    ATN180000000000000100
P21328439600019800000000000753000000038089299JUNO 05LT                                         LT    ATN180000000000000100
P21328439600019800000000000754000000031055100K-54 FOSFITO DE POTASSIO 5LT                      LT    ATN180000000000000100
P21328439600019800000000000755000000038089199KAISO 250 CS 01LT                                 LT    ATN180000000000000100
P21328439600019800000000000756000000038089199KAISO 250 CS 05LT                                 LT    ATN180000000000000100
P21328439600019800000000000757000000038089299KASUMIN 01LT                                      LT    ATN180000000000000100
P21328439600019800000000000758000000038089299KASUMIN 05LT                                      LT    ATN180000000000000100
P21328439600019800000000000759000000029224920KELLUS COPPER 3KG                                 KG    ATN180000000000000100
P21328439600019800000000000760000000031056000KELLUS IMUNE 04KG                                 KG    ATN180000000000000100
P21328439600019800000000000761000000031039090KELLUS INOX RN 3KG                                KG    ATN180000000000000100
P21328439600019800000000000762000000031051000K-FOL 01KG                                        KG    ATN180000000000000100
P21328439600019800000000000763000000031051000K-FOL 10KG                                        KG    ATN180000000000000100
P21328439600019800000000000764000000062102000KIT DE PROTECAO TRAT. BAGUM AZ (PVC)              UN    ATN180000000000000100
P21328439600019800000000000765000000062102000KIT DE PROTECAO TRAT. BAGUM AZ (PVC) - S/ AVENTAL UN    ATN180000000000000000
P21328439600019800000000000766000000038089199KLORPAN 480CE 01LT                                LT    ATN180000000000000100
P21328439600019800000000000767000000038089199KLORPAN 480CE 10LT                                LT    ATN180000000000000100
P21328439600019800000000000768000000038089197KORINGA TR (OLEO MINERAL) 5LT                     LT    ATN180000000000000100
P21328439600019800000000000769000000031052000KRISTA K 12.00.43  25KG                           KG    ATN180000000000000100
P21328439600019800000000000770000000031052000KRISTA K 12.00.45  25KG                           KG    ATN180000000000000100
P21328439600019800000000000771000000031052000KRISTAFLEX LARANJA 08.10.40 25KG                  KG    ATN180000000000000100
P21328439600019800000000000772000000038089329KROLL 05LT                                        LT    ATN180000000000000100
P21328439600019800000000000773000000038089329KROMO 250 WG 500GR                                KG    ATN180000000000000100
P21328439600019800000000000774000000038089329KYRON 40SC 01LT                                   LT    ATN180000000000000100
P21328439600019800000000000775000000038089329KYRON 40SC 05LT                                   LT    ATN180000000000000100
P21328439600019800000000000776000000031028000LANGER DP 10LT                                    LT    ATN180000000000000100
P21328439600019800000000000777000000031028000LANGER DP 200 LT                                  LT    ATN180000000000000100
P21328439600019800000000000778000000031028000LANGER HF 01LT                                    LT    ATN180000000000000100
P21328439600019800000000000779000000031028000LANGER HF 05LT                                    LT    ATN180000000000000100
P21328439600019800000000000780000000031028000LANGER HF 500ML                                   LT    ATN180000000000000100
P21328439600019800000000000781000000038089199LANNATE BR 10LT                                   LT    ATN180000000000000100
P21328439600019800000000000782000000034029029LANZAR 05LT                                       LT    ATN180000000000000100
P21328439600019800000000000783000000038089199LARVIN 800WP 01KG                                 KG    ATN180000000000000100
P21328439600019800000000000784000000038089199LESMICIDA CITROMAX RESISTENTE A UMIDADE 1KG       KG    ATN180000000000000100
P21328439600019800000000000785000000038089199LESMICIDA CITROMAX TRADICIONAL 1KG                KG    ATN180000000000000100
P21328439600019800000000000786000000038089329LIBERTY SL200 10LT                                LT    ATN180000000000000100
P21328439600019800000000000787000000031055900LIMPA-TANQUE OMEGA 1 LT                           LT    ATN180000000000000100
P21328439600019800000000000788000000038089199LOGIN 250 PC 01 KG                                KG    ATN180000000000000100
P21328439600019800000000000789000000031051000LOMBRICO K MAX 05LT                               LT    ATN180000000000000100
P21328439600019800000000000790000000031051000LOMBRICO K MAX 20LT                               LT    ATN180000000000000100
P21328439600019800000000000791000000039251000LONA SILO PRETA  BRANCO 8X50 REF:150              UN    ATN180000000000000100
P21328439600019800000000000792000000039251000LONA SILO PRETA BRANCO 6X100 REF:200              UN    ATN180000000000000100
P21328439600019800000000000793000000039251000LONA SILO PRETA BRANCO 6X50 REF:150               UN    ATN180000000000000100
P21328439600019800000000000794000000039251000LONA SILO PRETA BRANCO 6X50 REF:200               UN    ATN180000000000000100
P21328439600019800000000000795000000039251000LONA SILO PRETA BRANCO 8X100 REF:200              UN    ATN180000000000000100
P21328439600019800000000000796000000039251000LONA SILO PRETO BRANCO 8X50 REF: 200              UN    ATN180000000000000100
P21328439600019800000000000797000000039251000LONA SUPER SILO CAIXA EXTRA 10X50                 UN    ATN180000000000000100
P21328439600019800000000000798000000039251000LONA SUPER SILO CAIXA EXTRA 6X50                  UN    ATN180000000000000100
P21328439600019800000000000799000000039251000LONA SUPER SILO CAIXA EXTRA 8X50                  UN    ATN180000000000000100
P21328439600019800000000000800000000038089199LORSBAN 480BR 20LT                                LT    ATN180000000000000100
